:020000040800F2
:1000000090090020290200081F1500086314000849
:100010001D15000883040008651B0008000000008F
:100020000000000000000000000000002315000890
:100030004D050008000000002115000825150008E6
:10004000430200084302000843020008430200087C
:10005000430200084302000843020008430200086C
:10006000430200084302000843020008430200085C
:100070004302000843020008430200088504000808
:10008000430200084302000843020008430200083C
:10009000430200084302000843020008430200082C
:1000A000430200084302000843020008430200081C
:1000B000430200084302000843020008430200080C
:1000C00043020008430200084302000843020008FC
:1000D00043020008DD190008A11A000843020008C5
:1000E00043020008430200084302000843020008DC
:1000F00043020008430200084302000843020008CC
:1001000043020008430200084302000843020008BB
:1001100043020008430200084302000843020008AB
:10012000430200084302000843020008430200089B
:10013000430200084302000843020008430200088B
:10014000430200084302000843020008430200087B
:1001500091040008430200089D04000843020008BF
:10016000430200084302000843020008430200085B
:100170004302000843020008430200080000000098
:10018000430200084302000800F002F800F03CF8C7
:100190000AA090E8000C82448344AAF10107DA45E2
:1001A00001D100F031F8AFF2090EBAE80F0013F0F8
:1001B000010F18BFFB1A43F001031847AC1B0000E6
:1001C000CC1B0000103A24BF78C878C1FAD8520777
:1001D00024BF30C830C144BF04680C6070470000C1
:1001E0000023002400250026103A28BF78C1FBD840
:1001F000520728BF30C148BF0B6070471FB501F0E0
:100200009DFD1FBD10B510BD00F001F91146FFF7AF
:10021000F5FF01F045FD00F01FF903B4FFF7F2FF11
:1002200003BC00F027F9000009488047094800474F
:10023000FEE7FEE7FEE7FEE7FEE7FEE7FEE7FEE796
:10024000FEE7FEE704480549054A064B70470000F3
:10025000BD150008890100089003002090090020C6
:10026000900500209005002053EA020C00F0698000
:100270002DE9F04B4FF00006002B1FBFB3FA83F5BA
:1002800003FA05F424FA05F65E4012BF1643B2FAEB
:1002900082F502FA05F4C5F120051EBF22FA05FC1D
:1002A00044EA0C04203556EA044C4FEA144418BFC3
:1002B000641C4FF000084FF00009904271EB030CF2
:1002C00039D3002919BFB1FA81F701FA07F6B0FA5C
:1002D00080F700FA07F6C7F120071EBF20FA07FCD7
:1002E00046EA0C062037B6FBF4FCA7EB0507103FE7
:1002F00007F01F0BCBF120060CFA0BFB2CFA06F6CD
:1003000044BFB3460026202FA4BF5E464FF0000B2B
:100310005BEA060C08BF4FF0010B19EB0B09ABFBB6
:10032000027C48EB0608C01B06FB02CC0BFB03CC8F
:1003300071EB0C01C1E70B46024641464846BDE859
:10034000F08B13B54FF000004FF00001AFF30080C9
:10035000BDE81C40704710B5203AC0F00B80B1E8F2
:100360001850203AA0E81850B1E81850A0E81850EA
:10037000BFF4F5AF5FEA027C24BFB1E81850A0E8F3
:10038000185044BF18C918C0BDE810405FEA827C0D
:1003900024BF51F8043B40F8043B08BF7047D20724
:1003A00028BF31F8023B48BF11F8012B28BF20F8C5
:1003B000023B48BF00F8012B70474FF0000200B528
:1003C000134694469646203922BFA0E80C50A0E878
:1003D0000C50B1F12001BFF4F7AF090728BFA0E826
:1003E0000C5048BF0CC05DF804EB890028BF40F8F2
:1003F000042B08BF704748BF20F8022B11F0804F34
:1004000018BF00F8012B704770477047704775465A
:1004100000F02CF8AE4605006946534620F0070070
:10042000854618B020B5FFF70DFFBDE820404FF01E
:1004300000064FF000074FF000084FF0000B21F0CE
:100440000701AC46ACE8C009ACE8C009ACE8C0099B
:10045000ACE8C0098D46704710B50446AFF3008084
:100460002046BDE81040FFF7D8BE000000487047A6
:100470003003002001491820ABBEFEE72600020031
:100480007047FEE7014800F063B80000D00100208B
:10049000014800F05DB8000010010020014800F0A4
:1004A00057B80000B000002001681823CAB2103A03
:1004B000B2FBF3F2054B6FF30901032A9B5CC365A2
:1004C00000D9091D8165084670470000461D0008D7
:1004D00010B5014600208B698A6A4FF0C07453B191
:1004E000B3F5005F15D072B1012A0CD0022A0AD0F0
:1004F000032A09D104E01AB1012A06D0022A03D145
:10050000C96AC90100D5012010BDC96AA142FAD04B
:1005100010BD002AF7D0012AF2D0022AF3D0032A14
:10052000F3D010BD30B50468256825F4802525601A
:10053000046863608368402B036803D09960006897
:10054000C26030BD9A600068C16030BD7047000075
:100550002DE9F84304464FF00009CDF800906348B8
:100560004FF41651A56D0068B0FBF1F72E6894F8B2
:100570005C10082000FA01F131420FD021680A68AE
:1005800052070BD50A6822F004020A6094F85C1046
:100590008840A860606D40F00100606594F85C10D0
:1005A0004FF0010808FA01F0304208D0216849698B
:1005B000090604D5A860606D40F00200606594F8FB
:1005C0005C1004208840304208D0216809688907FF
:1005D00004D5A860606D40F00400606594F85C107C
:1005E00010208840304218D021680968090714D5C6
:1005F000A86020680168490304D50068000308D595
:10060000A16C07E00168C90503D4016821F0080165
:100610000160216C09B12046884794F85C102020C5
:100620008840304231D021680968C9062DD5A860BC
:1006300094F8350005282068016806D0490347D59D
:10064000006800031DD4616C1CE021F016010160FC
:100650002068416921F080014161206C08B9A06CDB
:1006600020B12068016821F00801016094F85C1055
:100670003F208840A86084F8358084F83490216D4C
:100680001FE0E16B09B120468847606D00282BD040
:10069000606DC00714D0052084F83500206801681B
:1006A00021F0010101600098401C0090B84203D87D
:1006B00020680068C007F6D184F8358084F834904B
:1006C000E16C002910D001B02046BDE8F043084796
:1006D0000168C905D5D4016821F01001016084F8D2
:1006E000358084F83490CCE7BDE8F8830C00002016
:1006F0002DE9F041044600F0B5F906465CB1022050
:1007000084F83500002584F834502068016821F011
:10071000010101600DE00120BDE8F08100F0A2F9C7
:10072000801B052805D920206065032084F835004A
:10073000F2E720680068C007F0D1226811682048FD
:100740000140D4E901031843D4E903363343184385
:1007500063691843A3691843E3691843236A18437C
:100760000843616A042903D1D4E90B1319430843F0
:10077000106020684069666A20F0070130460E4329
:10078000012704280CD1A06A0643E06A40B1204644
:10079000FFF79EFE20B14020606584F83570BAE70F
:1007A000206846612046FFF77FFE94F85C203F21D9
:1007B00091408160656584F835700020ACE70000E9
:1007C0003F8010F02DE9F0410446866D90F834002A
:1007D000002501280DD0012084F8340094F83570EC
:1007E0000020012F07D084F8340002252846BDE8F8
:1007F000F0810220FBE7022784F83570606520460F
:10080000FFF790FE94F85C103F208840B0602068AD
:10081000016841F016010160206C20B12068016878
:1008200041F0080101602068016841F001010160A8
:10083000DCE7000070B5044600F014F90546601CC2
:1008400002D004480078044400F00CF9401BA04298
:10085000FAD370BD000000202DE9F84FDFF8BCA1ED
:10086000002201250AF1040B03264FF00F090BF1BA
:10087000040E00BF0B6805FA02F42340A34270D1B6
:100880000F7907F00307012F01D0022F16D18768D7
:100890004FEA420806FA08FC27EA0C07D1F80CC018
:1008A0000CFA08FC4CEA070CC0F808C04768A743DC
:1008B0000C79C4F3001494403C4344600C79E44345
:1008C000A4070AD0C4684FEA420C06FA0CF7BC43EE
:1008D0008F6807FA0CF72743C7600C7904F003040C
:1008E000022C12D1D40800EB840CDCF8204057070E
:1008F000FF0E09FA07F824EA0804D1F8108008FA74
:1009000007F848EA0408CCF8208004684FEA420C53
:1009100006FA0CF7BC430F7907F0030707FA0CF748
:10092000274307604C6814F4403F70D03C4C276864
:1009300047F480472760246822F0030704F48044CA
:100940000094384C07EB040CDCF8084897074FEA92
:10095000177809FA08F7BC43334FB84202D1002791
:1009600024E054E0314FB84201D101271EE0304F5E
:10097000B84201D1022719E02E4FB84201D1032716
:1009800014E02D4FB84201D104270FE02B4FB8429D
:1009900001D105270AE02A4FB84201D1062705E018
:1009A000284FB84201D1072700E0082707FA08F7C7
:1009B0002743CCF80878DAF800405746D1F804C04D
:1009C0009C435FEACC3C00D51C433C60DBF8004014
:1009D0005F46D1F804C09C435FEA8C3C00D51C43C1
:1009E0003C60DEF800407746D1F804C09C435FEAE3
:1009F000CC2C00D51C433C60084F0C373C68D1F828
:100A000004C09C435FEA8C2C00D51C433C60521C04
:100A1000102AFFF42FAFBDE8F88F0000003C014022
:100A2000443802400030014000000240000402400F
:100A300000080240000C0240001002400014024076
:100A400000180240001C02400069084000D001204C
:100A50007047426921EA02030A4043EA0241816188
:100A600070470000014880687047000000000020C7
:100A700002488168027811448160704700000020BC
:100A80000B4810B5016841F400710160016841F440
:100A900080610160016841F480710160032000F011
:100AA0006FF80F2000F006F800F024F8002010BDC9
:100AB000003C024070B50D4D04464FF47A71287821
:100AC000B1FBF0F00A490968B1FBF0F000F00CFB53
:100AD00048B9102C07D200222146501E00F030F8F1
:100AE00000206C6070BD012070BD0000000000207F
:100AF0000C0000200A4808B5016841F480410160FB
:100B0000006800F4804000900548001F016841F033
:100B100080510160006800F08050009008BD000026
:100B200044380240002809DB00F01F0201219140F7
:100B30004009800000F1E020C0F80011704700007B
:100B4000F0B40E4B1B680C46C3F30223C3F1070538
:100B5000042D00D90425191D072901D2002300E026
:100B6000DB1E012606FA05F1491E214099409E40F0
:100B7000761E16403143F0BC00F0F5BF0CED00E0EE
:100B8000064900F0070208684FF6FF03184040EAE4
:100B90000220034A10430860704700000CED00E09B
:100BA0000000FA052DE9F0470E46050065D0DFF894
:100BB0001481D8F80000F7B200F00700B04207D265
:100BC00088F80070D8F8000000F00700B04254D157
:100BD00028683D4C810712D5400703D5206840F4B2
:100BE000E05020602878000703D5206840F460407A
:100BF00020602068A96820F0F00008432060287871
:100C0000C0072DD0304968680839012812D0022861
:100C100013D0032811D00968890700292DDA21682B
:100C200021F0030101432160FFF71CFF814641F2DF
:100C3000883A0EE009688903EFE709688901ECE763
:100C4000FFF710FFA0EB0901514502D90320BDE8D1
:100C5000F0872068696800F00C00B0EB810FEFD1DD
:100C6000D8F80010404601F00701B14207D90770DB
:100C7000006800F00700B04201D00120E7E72878C3
:100C8000400705D52068E96820F4E050084320605B
:100C90002878000706D52068296920F4604040EADA
:100CA000C100206000F038F82168084AC1F3031140
:100CB000515CC8400649086006480068FFF7FAFE24
:100CC0000020C4E7003C0240083802404E1D0008E6
:100CD0000C00002004000020044805490068096851
:100CE000044AC1F38221515CC84070470C000020C7
:100CF000083802405E1D000804480549006809687C
:100D0000044AC1F34231515CC84070470C000020D6
:100D1000083802405E1D0008154810B5006810F044
:100D20000C02144813D01449042A0FD0082A0ED1FB
:100D30000F4C241F2268236802F03F025B0207D594
:100D40002068C0F38810A0FB010106E0084610BD32
:100D50002168C1F38811A1FB00010023FFF784FA89
:100D60002168C1F30141491C4900B0FBF1F010BDFD
:100D7000083802400024F40040787D012DE9F84F46
:100D800004006ED02078DFF84C93C007A9F1040569
:100D90004AD009F104000168C1F38101012908D09A
:100DA0000068C0F3810002280AD1D9F8000040028F
:100DB00006D52868800337D560680028E1D033E085
:100DC0006068B0F5803F10D0B0F5A02F286810D033
:100DD00020F480302860286820F480202860606833
:100DE000A8B1FFF73FFE06460DE0286840F48030CA
:100DF000F4E740F480202860F7E700BFFFF732FEF9
:100E0000801B642873D828688003F7D50CE0FFF7AF
:100E100029FE064605E000BFFFF724FE801B64287C
:100E2000F0D828688003F7D42078DFF8AC828007F8
:100E30004FF0000A3ED5A748001D016811F00C0FC5
:100E400008D00068C0F3810002280BD1D9F8000057
:100E5000400207D42868800716D5E068012800D131
:100E600012E033E1E068B8B10120C8F80000FFF7F4
:100E7000F9FD064605E000BFFFF7F4FD801B0228E0
:100E8000C0D828688007F7D52868216920F0F800C5
:100E900040EAC10028600DE0C8F800A0FFF7E2FDBD
:100EA000064604E0FFF7DEFD801B02281FD82868F5
:100EB0008007F7D42078000722D5864F87486169DC
:100EC000703771B101210160FFF7CCFD064604E0E7
:100ED000FFF7C8FD801B022809D838688007F7D5BE
:100EE0000EE0C0F800A0FFF7BDFD064605E082E079
:100EF000FFF7B8FD801B02287DD838688007F7D43B
:100F00002078400768D5DFF8CCB100270BF13C0B07
:100F1000DBF80000C0000BD4DBF8001041F080517A
:100F2000CBF80010DBF80000012700F080500090A3
:100F30006B4E3068C00510D4306840F4807030606B
:100F4000FFF790FD009005E0FFF78CFD0099401A37
:100F5000022850D83068C005F6D55E4EA0686C36C1
:100F600001280FD00528306810D020F00100306033
:100F7000306820F004003060A068B8B1FFF772FD5F
:100F800000900FE0306840F00100F4E740F004000A
:100F90003060F7E7FFF766FD0099411A41F28830AB
:100FA000814266D830688007F4D50EE0FFF75AFD1D
:100FB000009007E0FFF756FD0099411A41F2883092
:100FC000814256D830688007F4D42FB1DBF8001086
:100FD00021F08051CBF80010A069C8B33D49091D2C
:100FE0000968C1F3810102294AD00228504607D07E
:100FF000C8F8600000E03CE0FFF734FD04463BE049
:101000004746C8F86000FFF72DFD064605E000BF23
:10101000FFF728FD801B02282BD828688001F7D411
:10102000D4E907010843A16A2E4A490802EB0141AD
:10103000626A41EA8211084394F82C1040EA016187
:10104000C9F8001001203866FFF70CFD044606E0E1
:101050003EE000BFFFF706FD001B022809D8286804
:101060008001F7D534E000BFFFF7FCFC001B02282D
:1010700002D90320BDE8F88F28688001F4D427E066
:101080000128F7D0D9F80000E26900F4800191420C
:101090001CD1226A00F03F01914217D147F6C0717E
:1010A000626A0140B1EB821F10D1A26A4FF0FF3398
:1010B00000F4403103EB5202B1EB024F06D194F839
:1010C0002C1000F07060B0EB016F01D00120D1E76F
:1010D0000020CFE70438024000004742800E47421C
:1010E000007000400000FFFF10B5401EB0F1807F8F
:1010F00001D3012010BD4FF0E02460610F21601783
:1011000000F031FD0020A06107202061002010BD0B
:101110007047704770B5040004D094F83D00002576
:1011200010B106E0012070BD84F83C50204600F06C
:1011300023F8242084F83D002068C16821F4005180
:10114000C160204600F040FB2068016921F4904115
:1011500001612068416921F02A0141612068C1686C
:1011600041F40051C1602564202084F83D0084F8DA
:101170003E00002070BD00002DE9F04F05460068DC
:1011800071490024714E022787B04FF001084FF0DB
:1011900007094FF0006A4FF4806B884269D114212F
:1011A0006846FFF70AF9306840F0010030603068A7
:1011B00000F001000590306840F0010030603068B8
:1011C00000F00100059061481430016841F0100101
:1011D00001600068694600F0100005904FF4C0609F
:1011E0008DE88101CDE903795948FFF735FB0022ED
:1011F00011462520FFF7A4FC2520FFF793FC30685B
:1012000040F4800030603068534F00F48000059057
:101210005048FC613860C7E901A4FC62C7E9034B90
:101220003C63D0467C614FF4003ABC61C7E908A436
:10123000D9463846FFF75CFA6F63BD63306840F407
:1012400080003060306807F1600600F4800005908F
:1012500040483038C6E90008B460F462C6E9034982
:10126000346380157461C6E90640C6E908A43046B7
:1012700062E03A49884263D114216846FFF79DF83D
:10128000306840F001003060306800F001000590E7
:10129000306840F001003060306800F001000590D7
:1012A0002A481030016841F4003101600068694645
:1012B00000F4003005900C208DE88101CDE9037920
:1012C0002348FFF7C9FA002211462620FFF738FC11
:1012D0002620FFF727FC306840F4001030603068AB
:1012E0001D4E00F400100590C0361D48F4613060BA
:1012F000C6E901A4F462C6E9034B346374614FF498
:101300000038B461C6E90884D1465F463046FFF72D
:10131000EFF96E631248B56360361838C6E9000904
:10132000B460F462C6E90347346380157461C6E9AA
:101330000640C6E908843046FFF7DAF9AE63B563C4
:1013400007B0BDE8F08F00000010014030380240C7
:1013500000000240B8640240B00000200044004099
:10136000A060024090F83E30202B0ED159B152B10E
:1013700090F83C30012B08D0012380F83C3000234A
:10138000036300F0A7BA01207047022070470000F5
:1013900000680449884203D140210348FFF759BB44
:1013A000704700000010014000000240704700003C
:1013B0002DE9F843044690F83D001F4616460D46B9
:1013C00020284CD1C5B1BEB194F83C00012846D0CC
:1013D000012084F83C004FF00008C4F84080212030
:1013E00084F83D00FFF73EFBA6848146E684A068B2
:1013F000B0F5805F03D004E00120BDE8F8832069E8
:1014000028B12E465FF0000584F83C800EE00026EF
:10141000FAE78021204600F0A5FAA0B9AEB116F88F
:10142000010B21684860E08C401EE084E08C4B4654
:101430004FF0000200970028EBD14FF0400120460A
:1014400000F090FA30B10320D7E735F8020BC0F373
:101450000800E6E7202084F83D000020CDE70220C8
:10146000CBE7FEE710B5114886B00024016841F0D3
:1014700010010160016801F010010591016841F05F
:10148000100101600068142100F01000059068460A
:10149000FEF793FF1820CDE900040120CDE90204F6
:1014A00069460348FFF7D8F906B010BD303802404E
:1014B0000010024070B50C460546FFF7C5FA08B1AA
:1014C000002070BD21462846FFF7BEFA0028F9D05B
:1014D0000A20FFF7AFF9012070BD000010B50D48DC
:1014E00086B00024016841F0010101600068142108
:1014F00000F0010005906846FEF75FFFC0200090F5
:101500000120CDE90204019069460348FFF7A4F9E0
:1015100006B010BD3038024000000240FEE7FEE792
:1015200070477047FFF7A4BA30B593B030216846D2
:10153000FEF743FF14210CA8FEF73FFF1D480025CE
:10154000016841F080510160006800F08050119006
:101550001948016841F4804101600068022400F4E8
:101560008040119001200390102004900094069474
:101570000820CDE90750A820CDE9090404200B90EC
:101580006846FFF7FBFB08B172B6FEE70CA90F2017
:1015900081E831004FF4A0500F904FF4805010902C
:1015A00005210CA8FFF7FEFA002801D072B6FEE76D
:1015B00013B030BD4038024000700040024801685E
:1015C00041F470010160704788ED00E070B5846BF4
:1015D0002068406994F83D10C0F3C010002521290F
:1015E00004D118B1E584204600F08AF820684069EB
:1015F00094F83E10C0F38010222904D118B1E5857B
:10160000204600F056F8206C40F010002064204680
:10161000FFF77FFD70BD10B50146806B0968096852
:10162000C9052FD40021C18501680C3151E8002F74
:1016300022F4807241E80023002BF5D101681431B7
:1016400051E8002F22F0010241E80023002BF5D1E0
:101650000168143151E8002F22F0400241E80023D4
:10166000002BF5D1202180F83E10016B012909D112
:1016700001680C3151E8002F22F0100241E80023EC
:10168000002BF5D1016B012902D0FFF781FE10BDBF
:10169000818DFFF73DFD10BD10B5806B016B0129F9
:1016A00002D0FFF783FE10BD818D4908FFF730FDA2
:1016B00010BD01680C3151E8002F22F4907241E80E
:1016C0000023002BF5D10168143151E8002F22F0DE
:1016D000010241E80023002BF5D1016B012909D15A
:1016E00001680C3151E8002F22F0100241E800237C
:1016F000002BF5D1202180F83E10002101637047B6
:1017000001680C3151E8002F22F0C00241E80023AB
:10171000002BF5D1202180F83D1070472DE9F041D4
:101720001B4D00240C27C5E90574EC612C61EC60AD
:1017300016484FF4E136AC60C5E900062846FFF7CD
:10174000E9FC2868C16841F01001C160802205F5FC
:1017500002712846FFF706FE44350E48C5E90574B8
:10176000EC612C61EC60AC60C5E900062846FFF72F
:10177000D1FC2868C16841F01001C16005F5117104
:101780002846BDE8F0418022FFF7ECBD0010014083
:1017900028000020004400400FB470B50024159DBF
:1017A0004FF47A7604980068C0434006FAD42919A9
:1017B0003346012204A8641CFFF7FAFD285D0028C7
:1017C000F0D170BC5DF814FB70B504460068016987
:1017D000E26821F44051114301612169A068E26986
:1017E00008436169114308432168CA6849F20C63E0
:1017F0009A430243CA6020684169A26921F440719A
:101800001143416131492068884202D03049884201
:1018100002D1FFF771FA01E0FFF75EFAE2690023F7
:10182000192164253226B2F5004F626828D0A0FB4A
:101830000101930F9200FEF717FD0146B0FBF5F092
:101840006FF01802504301EB800006EB0010B0FB74
:10185000F5F000F0F002B1FBF5F002EB0012B1FB85
:10186000F5F06FF01803584301EB800006EB001011
:10187000B0FBF5F000F00F0021681044886070BDE7
:10188000A0FB010192185B41FEF7EEFC0146B0FBA4
:10189000F5F00201B1FBF5F06FF01803584301EBCE
:1018A000800006EBC000B0FBF5F000F0F80002EBA2
:1018B0004002B1FBF5F0584301EB800006EBC0009D
:1018C000B0FBF5F000F00700D6E700000010014083
:1018D0000014014038B58162828500251346044614
:1018E0000564222084F83E00A26B1B48D063A26BE3
:1018F0001A481064A26B1A48D064A06B0A460565AA
:101900002168A06B091DFEF75DFF20680168406833
:10191000009084F83C5020680C3050E8001F41F4DF
:10192000807140E80012002AF5D12068143050E898
:10193000001F41F0010140E80012002AF5D12068A3
:10194000143050E8001F41F0400140E80012002A26
:10195000F5D1002038BD00001716000899160008C0
:10196000CD1500082DE9F041984617460E4604466D
:10197000069D27E0681C25D02DB1FFF773F8A0EB7A
:101980000800A8421ED920680C3050E8001F21F43E
:10199000D07140E80012002AF5D12068143050E8D8
:1019A000001F21F0010140E80012002AF5D120209B
:1019B00084F83D0084F83E00002084F83C000320B9
:1019C000BDE8F0812068006836EA000004D00020FD
:1019D000B842CFD00020F3E70120F9E710B5C2B03C
:1019E00026222C4930A8FEF7B6FC2A4CE08CADF834
:1019F000E600A06A3A90A08DADF8EC00E08DADF85D
:101A0000EE00206B3C90092204F134013DA8FEF762
:101A1000A2FC94F83D008DF8FD0094F83E008DF88E
:101A2000FE00206C409026221B491FA8FEF793FC65
:101A3000194CE08CADF8A200A06A2990A08DADF8F9
:101A4000A800E08DADF8AA00206B2B90092204F1CC
:101A500034012CA8FEF77FFC94F83D008DF8B90006
:101A600094F83E008DF8BA00206C2F900B481E9021
:101A7000442230A90DA8FEF76EFC342223A9684643
:101A8000FEF769FC1FAC94E80F0000F07DF842B04F
:101A900010BD00006C000020280000203002002053
:101AA00010B5C2B026222C4930A8FEF754FC2A4CAF
:101AB000E08CADF8E600A06A3A90A08DADF8EC009D
:101AC000E08DADF8EE00206B3C90092204F134016A
:101AD0003DA8FEF740FC94F83D008DF8FD0094F819
:101AE0003E008DF8FE00206C409026221B491FA866
:101AF000FEF731FC194CE08CADF8A200A06A2990E9
:101B0000A08DADF8A800E08DADF8AA00206B2B9059
:101B1000092204F134012CA8FEF71DFC94F83D00C5
:101B20008DF8B90094F83E008DF8BA00206C2F9023
:101B30000B481E90442230A90DA8FEF70CFC34225D
:101B400023A96846FEF707FC1FAC94E80F0000F0DD
:101B500067F842B010BD00006C0000202800002093
:101B6000B0020020FEE70907090E002804DB00F19F
:101B7000E02080F80014704700F00F0000F1E02032
:101B800080F8141D704700000FB42DE9F04106984D
:101B90000068C043C0062CD41D48016840681D4839
:101BA000006840681C4CC0F180001C4E2060A16899
:101BB00040F6FF77401A8030C11700EB516121F0E9
:101BC0007F01401A002560600EE0A0683B46284473
:101BD000C11700EB516121F07F01401A3118012239
:101BE00017A8FFF7E5FB6D1C60688542EDDB2068F8
:101BF000A06006980068C043800605D40698006877
:101C0000069920F020000860BDE8F0015DF814FBA3
:101C100000100140100100201000002030020020C0
:101C20000FB410B51398249A0068C043C0062BD493
:101C3000174800681648001D00681648006840688C
:101C4000154CC0F18000E0606169401A8030C31714
:101C500000EB536323F07F03C01A2061C81701EB28
:101C6000506020F07F00081A115C5E290AD11044F0
:101C70004078522806D140F6FF73012207A102A83E
:101C8000FFF796FBE068606110BC5DF814FB000094
:101C900000440040D001002010000020430000005C
:101CA000A0B0FEF7EDFEFFF73FFCFFF737FDFFF7B3
:101CB00015FCFFF7D7FB1E4D08212846FFF7FAFB5E
:101CC0000128F9D126221B490EA8FEF744FB194C26
:101CD000E08CADF85E00A06A1890A08DADF86400AD
:101CE000E08DADF86600206B1A90092204F13401F2
:101CF0001BA8FEF730FB94F83D008DF8750094F8B2
:101D00003E008DF87600206C1E900BA00D903422C2
:101D100012A96846FEF71FFB0DF1380C9CE80F0076
:101D2000FFF73AFD4FF4FA70FEF784FDC4E70000B8
:101D3000001002406C0000205E4300004FF0407035
:101D4000E1EE100A7047000610160006101600009B
:101D5000000000000000010203040607080900005B
:101D60000000010203040000881D0008000000209C
:101D700028000000C4010008B01D00082800002051
:101D800068090000E00100080100000010000000E8
:101D9000000000000024F40000000000000000002B
:101DA0000000000000000000000000000000000033
:040000050800018965
:00000001FF
